{
  "transactions": [
    {
      "hash": "0x5a58051aa50ed8edd5db3ac01dfd0c3351029d5cba7e4d9b578921cdb29f46f0",
      "transactionType": "CALL",
      "contractName": null,
      "contractAddress": "0xaa489b4f076ce1459b48a730efb981641a91b7c7",
      "function": "endAndReplaceMarket(uint256,bytes32,uint256,bool,address)",
      "arguments": [
        "43",
        "0x50ddb9cd80d5c271664a2ebb7fcaed1d0a148d82c8e8d314d830f75a944c3dcc",
        "700000",
        "false",
        "0x2791Bca1f2de4661ED88A30C99A7a9449Aa84174"
      ],
      "transaction": {
        "from": "0x8befd83ef1d39eea72de65d4470c0f387c8645dd",
        "to": "0xaa489b4f076ce1459b48a730efb981641a91b7c7",
        "gas": "0x1a0d65",
        "value": "0x0",
        "input": "0x105296d1000000000000000000000000000000000000000000000000000000000000002b50ddb9cd80d5c271664a2ebb7fcaed1d0a148d82c8e8d314d830f75a944c3dcc00000000000000000000000000000000000000000000000000000000000aae6000000000000000000000000000000000000000000000000000000000000000000000000000000000000000002791bca1f2de4661ed88a30c99a7a9449aa84174",
        "nonce": "0x8c",
        "chainId": "0x89"
      },
      "additionalContracts": [],
      "isFixedGasLimit": false
    },
    {
      "hash": "0xc209bd08438d97f6f09d20c62d4dff7e696b5d9bbcc009abfdeb7d339ff6269b",
      "transactionType": "CALL",
      "contractName": null,
      "contractAddress": "0xaa489b4f076ce1459b48a730efb981641a91b7c7",
      "function": "endAndReplaceMarket(uint256,bytes32,uint256,bool,address)",
      "arguments": [
        "44",
        "0x9c1a953fe92c8357f1b646ba25d983aa83e90c525992db14fb726fa895cb5763",
        "635000",
        "false",
        "0x2791Bca1f2de4661ED88A30C99A7a9449Aa84174"
      ],
      "transaction": {
        "from": "0x8befd83ef1d39eea72de65d4470c0f387c8645dd",
        "to": "0xaa489b4f076ce1459b48a730efb981641a91b7c7",
        "gas": "0xb4680",
        "value": "0x0",
        "input": "0x105296d1000000000000000000000000000000000000000000000000000000000000002c9c1a953fe92c8357f1b646ba25d983aa83e90c525992db14fb726fa895cb5763000000000000000000000000000000000000000000000000000000000009b07800000000000000000000000000000000000000000000000000000000000000000000000000000000000000002791bca1f2de4661ed88a30c99a7a9449aa84174",
        "nonce": "0x8d",
        "chainId": "0x89"
      },
      "additionalContracts": [],
      "isFixedGasLimit": false
    }
  ],
  "receipts": [
    {
      "status": "0x1",
      "cumulativeGasUsed": "0xe13ce6",
      "logs": [
        {
          "address": "0xaa489b4f076ce1459b48a730efb981641a91b7c7",
          "topics": [
            "0x3e9d00be23e9fbbf114b2936239f8a2b02c08ca52f3dd8c080e98bdc9086fc43"
          ],
          "data": "0x000000000000000000000000000000000000000000000000000000000000002b",
          "blockHash": "0x904b5ed707df938f0aaecf43f89cd53e28500e18f4b40efa4d930df905211c9b",
          "blockNumber": "0x4b926cc",
          "blockTimestamp": "0x691e431f",
          "transactionHash": "0x5a58051aa50ed8edd5db3ac01dfd0c3351029d5cba7e4d9b578921cdb29f46f0",
          "transactionIndex": "0x39",
          "logIndex": "0x291",
          "removed": false
        },
        {
          "address": "0xaa489b4f076ce1459b48a730efb981641a91b7c7",
          "topics": [
            "0x9ce1de80303aed6101e534fe1b2979d9598708e9d5bfee44a2c0c9823b9a79ee"
          ],
          "data": "0x000000000000000000000000000000000000000000000000000000000000003250ddb9cd80d5c271664a2ebb7fcaed1d0a148d82c8e8d314d830f75a944c3dccc329e6ef6e31f2221f9f8212a8d345ee7a5299bd512948ace6aaeb02bc15ac50d0a70a1ee9d0df1259e8163633ba691837d3b4ddb36de94c67c3d8062b3cad310000000000000000000000000000000000000000000000000000000000000000",
          "blockHash": "0x904b5ed707df938f0aaecf43f89cd53e28500e18f4b40efa4d930df905211c9b",
          "blockNumber": "0x4b926cc",
          "blockTimestamp": "0x691e431f",
          "transactionHash": "0x5a58051aa50ed8edd5db3ac01dfd0c3351029d5cba7e4d9b578921cdb29f46f0",
          "transactionIndex": "0x39",
          "logIndex": "0x292",
          "removed": false
        },
        {
          "address": "0x0000000000000000000000000000000000001010",
          "topics": [
            "0x4dfe1bbbcf077ddc3e01291eea2d5c70c2b422b415d95645b9adcfd678cb1d63",
            "0x0000000000000000000000000000000000000000000000000000000000001010",
            "0x0000000000000000000000008befd83ef1d39eea72de65d4470c0f387c8645dd",
            "0x0000000000000000000000007ee41d8a25641000661b1ef5e6ae8a00400466b0"
          ],
          "data": "0x000000000000000000000000000000000000000000000000008089b6d74e52b400000000000000000000000000000000000000000000000818dc2cec2c11f02a00000000000000000000000000000000000000000002802c26fffbfbd7d014b6000000000000000000000000000000000000000000000008185ba33554c39d7600000000000000000000000000000000000000000002802c278085b2af1e676a",
          "blockHash": "0x904b5ed707df938f0aaecf43f89cd53e28500e18f4b40efa4d930df905211c9b",
          "blockNumber": "0x4b926cc",
          "blockTimestamp": "0x691e431f",
          "transactionHash": "0x5a58051aa50ed8edd5db3ac01dfd0c3351029d5cba7e4d9b578921cdb29f46f0",
          "transactionIndex": "0x39",
          "logIndex": "0x293",
          "removed": false
        }
      ],
      "logsBloom": "0x00000000000000000000000000000010000000000000000000000000000000000000000000000000000000000000000000008000000000000000000000000000000000000000000000000000000004800000008000000000000100000000000000000000000000000000000000000200000000000000000080000000000000000000004000000000020000000400000000000000000000000000000000000000220000000000040000000000000000010000000000000000000000000000004000000000000000000001000000000000000000400000000000100000000000000000000001020000000000000040000000000000000000000000000000100000",
      "type": "0x2",
      "transactionHash": "0x5a58051aa50ed8edd5db3ac01dfd0c3351029d5cba7e4d9b578921cdb29f46f0",
      "transactionIndex": "0x39",
      "blockHash": "0x904b5ed707df938f0aaecf43f89cd53e28500e18f4b40efa4d930df905211c9b",
      "blockNumber": "0x4b926cc",
      "gasUsed": "0x12dc86",
      "effectiveGasPrice": "0x8a462c934",
      "from": "0x8befd83ef1d39eea72de65d4470c0f387c8645dd",
      "to": "0xaa489b4f076ce1459b48a730efb981641a91b7c7",
      "contractAddress": null
    },
    {
      "status": "0x1",
      "cumulativeGasUsed": "0xe966ad",
      "logs": [
        {
          "address": "0xaa489b4f076ce1459b48a730efb981641a91b7c7",
          "topics": [
            "0x3e9d00be23e9fbbf114b2936239f8a2b02c08ca52f3dd8c080e98bdc9086fc43"
          ],
          "data": "0x000000000000000000000000000000000000000000000000000000000000002c",
          "blockHash": "0x904b5ed707df938f0aaecf43f89cd53e28500e18f4b40efa4d930df905211c9b",
          "blockNumber": "0x4b926cc",
          "blockTimestamp": "0x691e431f",
          "transactionHash": "0xc209bd08438d97f6f09d20c62d4dff7e696b5d9bbcc009abfdeb7d339ff6269b",
          "transactionIndex": "0x3a",
          "logIndex": "0x294",
          "removed": false
        },
        {
          "address": "0xaa489b4f076ce1459b48a730efb981641a91b7c7",
          "topics": [
            "0x9ce1de80303aed6101e534fe1b2979d9598708e9d5bfee44a2c0c9823b9a79ee"
          ],
          "data": "0x00000000000000000000000000000000000000000000000000000000000000339c1a953fe92c8357f1b646ba25d983aa83e90c525992db14fb726fa895cb576312cbad478677529833263a8cf73d557ed608689f85c9f568aac63f73ab0af80a0596687e84a4e581362bfde663dc76765c213695610e18c2de251b42fdde3f0d0000000000000000000000000000000000000000000000000000000000000000",
          "blockHash": "0x904b5ed707df938f0aaecf43f89cd53e28500e18f4b40efa4d930df905211c9b",
          "blockNumber": "0x4b926cc",
          "blockTimestamp": "0x691e431f",
          "transactionHash": "0xc209bd08438d97f6f09d20c62d4dff7e696b5d9bbcc009abfdeb7d339ff6269b",
          "transactionIndex": "0x3a",
          "logIndex": "0x295",
          "removed": false
        },
        {
          "address": "0x0000000000000000000000000000000000001010",
          "topics": [
            "0x4dfe1bbbcf077ddc3e01291eea2d5c70c2b422b415d95645b9adcfd678cb1d63",
            "0x0000000000000000000000000000000000000000000000000000000000001010",
            "0x0000000000000000000000008befd83ef1d39eea72de65d4470c0f387c8645dd",
            "0x0000000000000000000000007ee41d8a25641000661b1ef5e6ae8a00400466b0"
          ],
          "data": "0x0000000000000000000000000000000000000000000000000037a18a941fb4d200000000000000000000000000000000000000000000000818392c2f15cbeef200000000000000000000000000000000000000000002802c278085b2af1e676a00000000000000000000000000000000000000000000000818018aa481ac3a2000000000000000000000000000000000000000000002802c27b8273d433e1c3c",
          "blockHash": "0x904b5ed707df938f0aaecf43f89cd53e28500e18f4b40efa4d930df905211c9b",
          "blockNumber": "0x4b926cc",
          "blockTimestamp": "0x691e431f",
          "transactionHash": "0xc209bd08438d97f6f09d20c62d4dff7e696b5d9bbcc009abfdeb7d339ff6269b",
          "transactionIndex": "0x3a",
          "logIndex": "0x296",
          "removed": false
        }
      ],
      "logsBloom": "0x00000000000000000000000000000010000000000000000000000000000000000000000000000000000000000000000000008000000000000000000000000000000000000000000000000000000004800000008000000000000100000000000000000000000000000000000000000200000000000000000080000000000000000000004000000000020000000400000000000000000000000000000000000000220000000000040000000000000000010000000000000000000000000000004000000000000000000001000000000000000000400000000000100000000000000000000001020000000000000040000000000000000000000000000000100000",
      "type": "0x2",
      "transactionHash": "0xc209bd08438d97f6f09d20c62d4dff7e696b5d9bbcc009abfdeb7d339ff6269b",
      "transactionIndex": "0x3a",
      "blockHash": "0x904b5ed707df938f0aaecf43f89cd53e28500e18f4b40efa4d930df905211c9b",
      "blockNumber": "0x4b926cc",
      "gasUsed": "0x829c7",
      "effectiveGasPrice": "0x8a462c934",
      "from": "0x8befd83ef1d39eea72de65d4470c0f387c8645dd",
      "to": "0xaa489b4f076ce1459b48a730efb981641a91b7c7",
      "contractAddress": null
    }
  ],
  "libraries": [],
  "pending": [],
  "returns": {},
  "timestamp": 1763590943987,
  "chain": 137,
  "commit": "1d9f3d6"
}