{
  "transactions": [
    {
      "hash": "0xbf889bee41c139bacc028c98d79f86eebbc60cbeb09622d786ae5b53f5ee55b5",
      "transactionType": "CALL",
      "contractName": null,
      "contractAddress": "0xaa489b4f076ce1459b48a730efb981641a91b7c7",
      "function": "endAndReplaceMarket(uint256,bytes32,uint256,bool,address)",
      "arguments": [
        "42",
        "0x77b4a1d4cd398a86c18b6bb9b5218917dc9f04b01a3cd4bae1c71ea345f15fa8",
        "808000",
        "false",
        "0x2791Bca1f2de4661ED88A30C99A7a9449Aa84174"
      ],
      "transaction": {
        "from": "0x8befd83ef1d39eea72de65d4470c0f387c8645dd",
        "to": "0xaa489b4f076ce1459b48a730efb981641a91b7c7",
        "gas": "0x19f7cc",
        "value": "0x0",
        "input": "0x105296d1000000000000000000000000000000000000000000000000000000000000002a77b4a1d4cd398a86c18b6bb9b5218917dc9f04b01a3cd4bae1c71ea345f15fa800000000000000000000000000000000000000000000000000000000000c544000000000000000000000000000000000000000000000000000000000000000000000000000000000000000002791bca1f2de4661ed88a30c99a7a9449aa84174",
        "nonce": "0x8b",
        "chainId": "0x89"
      },
      "additionalContracts": [],
      "isFixedGasLimit": false
    }
  ],
  "receipts": [
    {
      "status": "0x1",
      "cumulativeGasUsed": "0x148be16",
      "logs": [
        {
          "address": "0xaa489b4f076ce1459b48a730efb981641a91b7c7",
          "topics": [
            "0x3e9d00be23e9fbbf114b2936239f8a2b02c08ca52f3dd8c080e98bdc9086fc43"
          ],
          "data": "0x000000000000000000000000000000000000000000000000000000000000002a",
          "blockHash": "0x36e05784c8d9372a1b169c926397faad8af52ec173c42697e2f03f8a98b7eaa0",
          "blockNumber": "0x4b92659",
          "blockTimestamp": "0x691e4239",
          "transactionHash": "0xbf889bee41c139bacc028c98d79f86eebbc60cbeb09622d786ae5b53f5ee55b5",
          "transactionIndex": "0x8b",
          "logIndex": "0x2bd",
          "removed": false
        },
        {
          "address": "0xaa489b4f076ce1459b48a730efb981641a91b7c7",
          "topics": [
            "0x9ce1de80303aed6101e534fe1b2979d9598708e9d5bfee44a2c0c9823b9a79ee"
          ],
          "data": "0x000000000000000000000000000000000000000000000000000000000000003177b4a1d4cd398a86c18b6bb9b5218917dc9f04b01a3cd4bae1c71ea345f15fa8185890a61129080e3216cbdea9377ffb604b4ddc6e77e9edf216ab10277201f9bc590166c9e737b0a8d30fa399207fab75b4a594ac9cc4c2bd55ff2bb85054550000000000000000000000000000000000000000000000000000000000000000",
          "blockHash": "0x36e05784c8d9372a1b169c926397faad8af52ec173c42697e2f03f8a98b7eaa0",
          "blockNumber": "0x4b92659",
          "blockTimestamp": "0x691e4239",
          "transactionHash": "0xbf889bee41c139bacc028c98d79f86eebbc60cbeb09622d786ae5b53f5ee55b5",
          "transactionIndex": "0x8b",
          "logIndex": "0x2be",
          "removed": false
        },
        {
          "address": "0x0000000000000000000000000000000000001010",
          "topics": [
            "0x4dfe1bbbcf077ddc3e01291eea2d5c70c2b422b415d95645b9adcfd678cb1d63",
            "0x0000000000000000000000000000000000000000000000000000000000001010",
            "0x0000000000000000000000008befd83ef1d39eea72de65d4470c0f387c8645dd",
            "0x0000000000000000000000007ee41d8a25641000661b1ef5e6ae8a00400466b0"
          ],
          "data": "0x00000000000000000000000000000000000000000000000000858b47dcb723ad0000000000000000000000000000000000000000000000081983590a408d63ef00000000000000000000000000000000000000000002801d4d47552c268d548600000000000000000000000000000000000000000000000818fdcdc263d6404200000000000000000000000000000000000000000002801d4dcce07403447833",
          "blockHash": "0x36e05784c8d9372a1b169c926397faad8af52ec173c42697e2f03f8a98b7eaa0",
          "blockNumber": "0x4b92659",
          "blockTimestamp": "0x691e4239",
          "transactionHash": "0xbf889bee41c139bacc028c98d79f86eebbc60cbeb09622d786ae5b53f5ee55b5",
          "transactionIndex": "0x8b",
          "logIndex": "0x2bf",
          "removed": false
        }
      ],
      "logsBloom": "0x00000000000000000000000000000010000000000000000000000000000000000000000000000000000000000000000000008000000000000000000000000000000000000000000000000000000004800000008000000000000100000000000000000000000000000000000000000200000000000000000080000000000000000000004000000000020000000400000000000000000000000000000000000000220000000000040000000000000000010000000000000000000000000000004000000000000000000001000000000000000000400000000000100000000000000000000001020000000000000040000000000000000000000000000000100000",
      "type": "0x2",
      "transactionHash": "0xbf889bee41c139bacc028c98d79f86eebbc60cbeb09622d786ae5b53f5ee55b5",
      "transactionIndex": "0x8b",
      "blockHash": "0x36e05784c8d9372a1b169c926397faad8af52ec173c42697e2f03f8a98b7eaa0",
      "blockNumber": "0x4b92659",
      "gasUsed": "0x11c181",
      "effectiveGasPrice": "0x96a404c45",
      "from": "0x8befd83ef1d39eea72de65d4470c0f387c8645dd",
      "to": "0xaa489b4f076ce1459b48a730efb981641a91b7c7",
      "contractAddress": null
    }
  ],
  "libraries": [],
  "pending": [],
  "returns": {},
  "timestamp": 1763590715029,
  "chain": 137,
  "commit": "1d9f3d6"
}